:100000000C942A000C94C50B0C94F20B0C941F0C4E
:100010000C9447000C9447000C94730F0C94460FFB
:100020000C9447000C94190F0C94BF0E0C94EC0E1A
:100030000C9447000C9447000C9447000C94470024
:100040000C9447000C9447000C9447000C94470014
:100050000C94470011241FBECFE5D4E0DEBFCDBF16
:1000600010E0A0E6B0E0EEE4FAE202C005900D92E6
:10007000A037B107D9F710E0A0E7B0E001C01D92AA
:10008000A538B107E1F70E9421100C9425150C94B6
:100090000000EF92FF920F931F937B018C0120E0F1
:1000A00030E040E05FE40E94490388238CF0C801FF
:1000B000B70120E030E040E05FE40E94C1010E940F
:1000C000A9039B01AC01205030404040504806C07D
:1000D000C801B7010E94A9039B01AC01B901CA0183
:1000E0001F910F91FF90EF900895A0E0B0E0EBE733
:1000F000F0E00C94EE14DC012B01FA019C9192309B
:1001000008F439C1EB018881823008F433C194309E
:1001100069F4843009F02FC111969C91119789815F
:10012000981709F428C1A0E6B0E025C1843009F48D
:1001300021C18230A9F4923009F01DC19A01AD01AC
:1001400088E0EA010990AE01E90109929E0181501F
:10015000C1F7E201898111969C918923818308C1AD
:10016000923009F407C112962D903C901397EB0141
:100170008A819B811496AD90BD90CD90DC901797AD
:10018000EC80FD800E811F819101281B390BB90184
:1001900037FF04C066277727621B730B6032710537
:1001A0000CF061C0121613066CF537014801062EDB
:1001B00004C096948794779467940A94D2F721E0C8
:1001C00030E040E050E004C0220F331F441F551FB1
:1001D0006A95D2F721503040404050402E213F21B7
:1001E00040235123211531054105510521F021E01E
:1001F00030E040E050E079018A01E628F72808293C
:1002000019293CC0232BD1F1260E371E350146019A
:10021000062E04C096948794779467940A94D2F734
:1002200021E030E040E050E004C0220F331F441FC3
:10023000551F6A95D2F721503040404050402A2146
:100240003B214C215D21211531054105510521F04E
:1002500021E030E040E050E059016A01A628B728CB
:10026000C828D9280BC0821593052CF01C01AA249C
:10027000BB24650103C0EE24FF24870111969C91E5
:10028000D20111968C91981709F445C0992339F041
:10029000A80197012A193B094C095D0906C0A6016E
:1002A00095012E193F09400B510B57FD08C01182D3
:1002B0003382228224833583468357831DC081E0A5
:1002C00081833382228288279927DC01821B930B4A
:1002D000A40BB50B84839583A683B7830DC0220F2F
:1002E000331F441F551F24833583468357838281E0
:1002F000938101979383828324813581468157813D
:10030000DA01C9010197A109B1098F5F9F4FAF4F72
:10031000BF4328F30BC0918333822282EA0CFB1C7B
:100320000C1D1D1DE482F5820683178383E0808304
:10033000248135814681578157FF1AC0C901AA27F8
:1003400097FDA095BA2F81709070A070B0705695EF
:10035000479537952795822B932BA42BB52B848318
:100360009583A683B7838281938101969383828349
:10037000DF0101C0D201CD01CDB7DEB7E2E10C94BF
:100380000A15A0E2B0E0E7ECF1E00C94FA146983FE
:100390007A838B839C832D833E834F835887E9E048
:1003A000EE2EF12CEC0EFD1ECE010196B7010E943F
:1003B000D2048E010F5E1F4FCE010596B8010E9438
:1003C000D2048A8991E089278A8BC701B801AE01DE
:1003D000475E5F4F0E9475000E94FD03A096E6E015
:1003E0000C941615A0E2B0E0E8EFF1E00C94FA14DA
:1003F00069837A838B839C832D833E834F835887C5
:10040000F9E0EF2EF12CEC0EFD1ECE010196B701A6
:100410000E94D2048E010F5E1F4FCE010596B801D7
:100420000E94D204C701B801AE01475E5F4F0E942F
:1004300075000E94FD03A096E6E00C941615A0E25C
:10044000B0E0E5E2F2E00C94EE1469837A838B83EA
:100450009C832D833E834F835887CE010196BE0136
:10046000675F7F4F0E94D204CE010596BE016F5E8A
:100470007F4F0E94D2049985923088F0898982301A
:10048000C8F0943019F4823051F404C0843029F457
:10049000923081F480E690E0C6C0923049F420E0CA
:1004A0009A858A89981321E02A87CE010996BBC0D4
:1004B000823049F420E09A858A89981321E02A8BBA
:1004C000CE014196B0C02D843E844F8458886D88FB
:1004D0007E888F88988CEE24FF248701AA24BB2471
:1004E000650140E050E060E070E0E0E0F0E0C10174
:1004F00081709070892BE9F0E60CF71C081D191D1E
:100500009A01AB012A0D3B1D4C1D5D1D80E090E062
:10051000A0E0B0E0E614F7040805190520F481E036
:1005200090E0A0E0B0E0BA01A901480F591F6A1F8E
:100530007B1FAA0CBB1CCC1CDD1C97FE08C081E0F5
:1005400090E0A0E0B0E0A82AB92ACA2ADB2A3196B6
:10055000E032F10549F0660C771C881C991C569412
:10056000479437942794C3CFFA85EA892B893C892D
:100570008B859C85280F391F2E5F3F4F17C0CA01FE
:1005800081709070892B61F016950795F794E79428
:1005900080E090E0A0E0B0E8E82AF92A0A2B1B2BC3
:1005A00076956795579547952F5F3F4F77FDE7CF36
:1005B0000CC0440F551F661F771F17FD4160EE0CDE
:1005C000FF1C001F111F21503040403090E05907A0
:1005D00090E0690790E4790760F32B8F3C8FDB0193
:1005E000CA018F779070A070B07080349105A1051A
:1005F000B10561F447FD0AC0E114F10401051105DC
:1006000029F0405C5F4F6F4F7F4F40781A8EFE1786
:1006100011F081E08A8F4D8F5E8F6F8F78A383E01A
:10062000898FCE0149960E94FD03A096E2E10C94C9
:100630000A15A8E1B0E0EFE1F3E00C94FA14698345
:100640007A838B839C832D833E834F83588789E0F5
:10065000E82EF12CEC0EFD1ECE010196B7010E9492
:10066000D2048E010F5E1F4FCE010596B8010E9485
:10067000D2048985823040F08989823028F0C70110
:10068000B8010E944A0501C08FEF6896E6E00C941D
:100690001615A8E1B0E0EFE4F3E00C94FA146983D6
:1006A0007A838B839C832D833E834F83588789E095
:1006B000E82EF12CEC0EFD1ECE010196B7010E9432
:1006C000D2048E010F5E1F4FCE010596B8010E9425
:1006D000D2048985823040F08989823028F0C701B0
:1006E000B8010E944A0501C08FEF6896E6E00C94BD
:1006F0001615A8E1B0E0EFE7F3E00C94FA14698373
:100700007A838B839C832D833E834F83588789E034
:10071000E82EF12CEC0EFD1ECE010196B7010E94D1
:10072000D2048E010F5E1F4FCE010596B8010E94C4
:10073000D2048985823040F08989823028F0C7014F
:10074000B8010E944A0501C081E06896E6E00C9479
:100750001615ACE0B0E0EFEAF3E00C94FE14698308
:100760007A838B839C83CE010196BE016B5F7F4FA2
:100770000E94D2048D81823061F1823050F1843048
:1007800021F48E81882351F12EC02F81388537FDC9
:1007900020C06E812F3131051CF06623F9F023C093
:1007A0008EE190E0821B930B29853A854B855C8511
:1007B00004C056954795379527958A95D2F76623B5
:1007C000B1F050954095309521953F4F4F4F5F4F79
:1007D0000EC020E030E040E050E009C02FEF3FEFD6
:1007E0004FEF5FE704C020E030E040E050E8B9019F
:1007F000CA012C96E2E00C941A15DF92EF92FF9258
:100800000F931F93FC01E480F58006811781D1804E
:100810008081823048F480E090E0A0E1B0E0E82AF6
:10082000F92A0A2B1B2BA5C0843009F49FC0823003
:1008300021F4EE24FF24870105C0E114F104010531
:10084000110519F4E0E0F0E096C0628173819FEF3A
:10085000623879070CF05BC022E83FEF261B370BAC
:100860002A3131052CF020E030E040E050E02AC091
:10087000B801A701022E04C0769567955795479554
:100880000A94D2F781E090E0A0E0B0E004C0880FC5
:10089000991FAA1FBB1F2A95D2F70197A109B10979
:1008A0008E219F21A023B1230097A105B10521F03E
:1008B00081E090E0A0E0B0E09A01AB01282B392B59
:1008C0004A2B5B2BDA01C9018F779070A070B07052
:1008D00080349105A105B10539F427FF09C0205CDA
:1008E0003F4F4F4F5F4F04C0215C3F4F4F4F5F4F13
:1008F000E0E0F0E02030A0E03A07A0E04A07A0E402
:100900005A0710F0E1E0F0E079018A0127C0603871
:10091000710564F5FB01E158FF4FD801C7018F77DE
:100920009070A070B07080349105A105B10539F4C4
:10093000E7FE0DC080E490E0A0E0B0E004C08FE3EB
:1009400090E0A0E0B0E0E80EF91E0A1F1B1F17FFA1
:1009500005C016950795F794E794319687E01695AC
:100960000795F794E7948A95D1F705C0EE24FF2404
:100970008701EFEFF0E06E2F679566276795902F60
:100980009F77D794DD24D7948E2F8695492F462BB9
:10099000582F5D29B701CA011F910F91FF90EF9069
:1009A000DF900895FC01DB01408151812281622F9B
:1009B0006F7770E0221F2227221F9381892F880FD3
:1009C000822B282F30E0991F9927991F11969C930D
:1009D000119721153105A9F54115510561057105DD
:1009E00011F482E037C082E89FEF13969C938E93B8
:1009F00012979A01AB0167E0220F331F441F551F66
:100A00006A95D1F783E08C930DC0220F331F441FEA
:100A1000551F12968D919C911397019713969C9355
:100A20008E931297203080E0380780E0480780E4FA
:100A3000580758F314962D933D934D935C93179755
:100A400008952F3F310579F4411551056105710570
:100A500019F484E08C93089564FF03C081E08C93C3
:100A600012C01C9210C02F57304013963C932E9307
:100A7000129783E08C9387E0440F551F661F771F02
:100A80008A95D1F7706414964D935D936D937C9322
:100A9000179708951F93DC01FB019C91923008F495
:100AA00047C08081823008F443C0943051F41196DD
:100AB0001C91843099F58181682F70E0611B710968
:100AC0003FC0843021F0923031F48230B9F181811D
:100AD000882389F12DC011961C9111978230F1F075
:100AE00081811817D9F412962D913C911397828128
:100AF00093818217930794F028173907BCF0149656
:100B00008D919D910D90BC91A02D248135814681C0
:100B10005781281739074A075B0718F4112341F05A
:100B20000AC082179307A407B50740F4112319F0F0
:100B300061E070E005C06FEF7FEF02C060E070E041
:100B4000CB011F910895DF93CF9300D00F92CDB7C3
:100B5000DEB79B838A8319828A819B81009719F46F
:100B600081E0898314C0EA81FB818181EA81FB8174
:100B70009081692F41E00E944F06EA81FB818481C8
:100B8000EA81FB819381692F41E00E944F068981B0
:100B90000F900F900F90CF91DF910895DF93CF9337
:100BA00000D00F92CDB7DEB79B838A8319828A81EA
:100BB0009B81009719F481E0898314C0EA81FB814D
:100BC0008181EA81FB819081692F41E00E94A60723
:100BD000EA81FB818481EA81FB819381692F40E076
:100BE0000E94A60789810F900F900F90CF91DF91FF
:100BF0000895DF93CF9300D00F92CDB7DEB79B83DC
:100C00008A8319828A819B81009719F481E0898304
:100C100014C0EA81FB818181EA81FB819081692F87
:100C200040E00E94A607EA81FB818481EA81FB8182
:100C30009381692F41E00E94A60789810F900F9050
:100C40000F90CF91DF910895DF93CF9300D00F9253
:100C5000CDB7DEB79B838A8319828A819B810097F7
:100C600019F481E0898314C0EA81FB818181EA81E2
:100C7000FB819081692F40E00E94A607EA81FB81F9
:100C80008481EA81FB819381692F40E00E94A6075D
:100C900089810F900F900F90CF91DF910895DF938E
:100CA000CF93CDB7DEB728970FB6F894DEBF0FBE4F
:100CB000CDBF8A836B834C8319828B81883008F087
:100CC000F1C08C81882309F077C08A81282F30E019
:100CD00038872F838F8198858130910559F12F8135
:100CE0003885223031052CF48F819885009769F082
:100CF00060C02F8138852230310589F18F81988538
:100D00008330910509F440C054C0AAE3B0E0EAE39F
:100D1000F0E08081482F8B81282F30E081E090E047
:100D2000022E02C0880F991F0A94E2F7809584234F
:100D30008C93BAC0A7E3B0E0E7E3F0E08081482FEE
:100D40008B81282F30E081E090E0022E02C0880FD6
:100D5000991F0A94E2F7809584238C93A5C0A4E39D
:100D6000B0E0E4E3F0E08081482F8B81282F30E071
:100D700081E090E0022E02C0880F991F0A94E2F7EA
:100D8000809584238C9390C0A1E3B0E0E1E3F0E090
:100D90008081482F8B81282F30E081E090E0022E67
:100DA00002C0880F991F0A94E2F7809584238C93E0
:100DB0007BC081E0898378C08C81813009F074C068
:100DC0008A81282F30E03E832D838D819E81813062
:100DD000910549F12D813E81223031052CF48D8120
:100DE0009E81009761F05BC02D813E8122303105EC
:100DF00071F18D819E8183309105E9F150C0AAE3A4
:100E0000B0E0EAE3F0E08081482F8B81282F30E0CA
:100E100081E090E0022E02C0880F991F0A94E2F749
:100E2000842B8C9341C0A7E3B0E0E7E3F0E080813E
:100E3000482F8B81282F30E081E090E0022E02C005
:100E4000880F991F0A94E2F7842B8C932DC0A4E39A
:100E5000B0E0E4E3F0E08081482F8B81282F30E080
:100E600081E090E0022E02C0880F991F0A94E2F7F9
:100E7000842B8C9319C0A1E3B0E0E1E3F0E0808122
:100E8000482F8B81282F30E081E090E0022E02C0B5
:100E9000880F991F0A94E2F7842B8C9305C081E098
:100EA000898302C081E08983898128960FB6F894EE
:100EB000DEBF0FBECDBFCF91DF910895DF93CF93FB
:100EC00000D000D00F92CDB7DEB78A836B83198232
:100ED0008A81282F30E03D832C838C819D81813055
:100EE0009105D1F02C813D81223031052CF48C818B
:100EF0009D81009761F01FC02C813D81223031051A
:100F000081F08C819D818330910581F014C0EAE3EA
:100F1000F0E08B81808311C0E7E3F0E08B81808378
:100F20000CC0E4E3F0E08B81808307C0E1E3F0E0F4
:100F30008B81808302C081E0898389810F900F902B
:100F40000F900F900F90CF91DF910895DF93CF9383
:100F5000CDB7DEB728970FB6F894DEBF0FBECDBF72
:100F60008A836B834C8319828B81883008F0F1C0AF
:100F70008C81882309F077C08A81282F30E0388758
:100F80002F838F8198858130910559F12F81388584
:100F9000223031052CF48F819885009769F060C06C
:100FA0002F8138852230310589F18F8198858330F2
:100FB000910509F440C054C0ABE3B0E0EBE3F0E0CE
:100FC0008081482F8B81282F30E081E090E0022E35
:100FD00002C0880F991F0A94E2F7809584238C93AE
:100FE000BAC0A8E3B0E0E8E3F0E08081482F8B814D
:100FF000282F30E081E090E0022E02C0880F991F78
:101000000A94E2F7809584238C93A5C0A5E3B0E011
:10101000E5E3F0E08081482F8B81282F30E081E0EC
:1010200090E0022E02C0880F991F0A94E2F7809583
:1010300084238C9390C0A2E3B0E0E2E3F0E08081EF
:10104000482F8B81282F30E081E090E0022E02C0F3
:10105000880F991F0A94E2F7809584238C937BC0B4
:1010600081E0898378C08C81813009F074C08A81E5
:10107000282F30E03E832D838D819E818130910524
:1010800049F12D813E81223031052CF48D819E81E4
:10109000009761F05BC02D813E812230310571F1F6
:1010A0008D819E8183309105E9F150C0ABE3B0E0C2
:1010B000EBE3F0E08081482F8B81282F30E081E046
:1010C00090E0022E02C0880F991F0A94E2F7842B49
:1010D0008C9341C0A8E3B0E0E8E3F0E08081482FC2
:1010E0008B81282F30E081E090E0022E02C0880F33
:1010F000991F0A94E2F7842B8C932DC0A5E3B0E0EE
:10110000E5E3F0E08081482F8B81282F30E081E0FB
:1011100090E0022E02C0880F991F0A94E2F7842BF8
:101120008C9319C0A2E3B0E0E2E3F0E08081482FA5
:101130008B81282F30E081E090E0022E02C0880FE2
:10114000991F0A94E2F7842B8C9305C081E0898370
:1011500002C081E08983898128960FB6F894DEBFAA
:101160000FBECDBFCF91DF910895DF93CF9300D015
:1011700000D00F92CDB7DEB78A836B8319828A8144
:10118000282F30E03D832C838C819D818130910517
:10119000D1F02C813D81223031052CF48C819D8150
:1011A000009761F01FC02C813D812230310581F014
:1011B0008C819D818330910581F014C0EBE3F0E0D8
:1011C0008B81808311C0E8E3F0E08B8180830CC0C9
:1011D000E5E3F0E08B81808307C0E2E3F0E08B8100
:1011E000808302C081E0898389810F900F900F90E6
:1011F0000F900F90CF91DF910895DF93CF93CDB7EC
:10120000DEB727970FB6F894DEBF0FBECDBF8A8337
:101210006B835D834C8319828B81883008F079C0A1
:101220008C819D81009709F474C08A81282F30E059
:101230003F832E834E815F814130510559F18E816C
:101240009F818230910534F42E813F812115310533
:1012500069F05CC04E815F814230510579F18E8129
:101260009F818330910509F43DC050C0E9E3F0E06F
:101270008081282F30E08B81882F90E0A90102C067
:10128000559547958A95E2F7CA018170EC81FD81F9
:10129000808341C0E6E3F0E08081282F30E08B813D
:1012A000882F90E0A90102C0559547958A95E2F7ED
:1012B000CA018170EC81FD8180832DC0E3E3F0E001
:1012C0008081282F30E08B81882F90E0A90102C017
:1012D000559547958A95E2F7CA018170EC81FD81A9
:1012E000808319C0E0E3F0E08081282F30E08B811B
:1012F000882F90E0A90102C0559547958A95E2F79D
:10130000CA018170EC81FD81808305C081E0898301
:1013100002C081E08983898127960FB6F894DEBFE9
:101320000FBECDBFCF91DF910895DF93CF93CDB79F
:10133000DEB7A5E5B0E0E5E5F0E0808181608C9363
:10134000A5E5B0E0E5E5F0E0808182608C93ABE557
:10135000B0E0EBE5F0E0808180648C93CF91DF9189
:101360000895DF93CF93CDB7DEB7A5E5B0E0E5E50F
:10137000F0E0808184608C93A5E5B0E0E5E5F0E0E5
:10138000808188608C93ABE5B0E0EBE5F0E0808194
:1013900080688C93CF91DF910895DF93CF93CDB781
:1013A000DEB7A4E5B0E0E4E5F0E0808180648C93F2
:1013B000ABE5B0E0EBE5F0E0808180628C93CF910B
:1013C000DF910895DF93CF9300D000D0CDB7DEB783
:1013D0008A8319828A81282F30E03C832B838B817A
:1013E0009C818230910529F12B813C81233031058C
:1013F00034F48B819C818130910561F047C02B8151
:101400003C812330310521F18B819C818430910511
:1014100071F13CC0A5E5B0E0E5E5F0E080818E7FAC
:101420008C93A5E5B0E0E5E5F0E080818D7F8C93BD
:101430002FC0A5E5B0E0E5E5F0E0808181608C9308
:10144000A5E5B0E0E5E5F0E080818D7F8C9320C0DC
:10145000A5E5B0E0E5E5F0E0808182608C93A5E54C
:10146000B0E0E5E5F0E080818E7F8C9311C0A5E5CA
:10147000B0E0E5E5F0E0808181608C93A5E5B0E027
:10148000E5E5F0E0808182608C9302C081E0898391
:1014900089810F900F900F900F90CF91DF91089559
:1014A000DF93CF9300D000D0CDB7DEB78A83198207
:1014B0008A81282F30E03C832B838B819C81823072
:1014C000910529F12B813C812330310534F48B8146
:1014D0009C818130910561F047C02B813C81233094
:1014E000310521F18B819C818430910571F13CC0E3
:1014F000A5E5B0E0E5E5F0E080818B7F8C93A5E584
:10150000B0E0E5E5F0E08081877F8C932FC0A5E512
:10151000B0E0E5E5F0E0808184608C93A5E5B0E083
:10152000E5E5F0E08081877F8C9320C0A5E5B0E001
:10153000E5E5F0E080818B7F8C93A5E5B0E0E5E503
:10154000F0E0808188608C9311C0A5E5B0E0E5E50E
:10155000F0E0808184608C93A5E5B0E0E5E5F0E003
:10156000808188608C9302C081E0898389810F909B
:101570000F900F900F90CF91DF910895DF93CF934D
:1015800000D000D0CDB7DEB78A8319828A81282F98
:1015900030E03C832B838B819C818330910531F03B
:1015A0002B813C812430310549F010C0A4E5B0E026
:1015B000E4E5F0E080818F7B8C930AC0A4E5B0E085
:1015C000E4E5F0E0808180648C9302C081E089834F
:1015D00089810F900F900F900F90CF91DF91089518
:1015E000DF93CF9300D000D0CDB7DEB78A831982C6
:1015F0008A81282F30E03C832B838B819C8186302D
:10160000910559F02B813C812730310571F08B8198
:101610009C818530910589F018C0ABE5B0E0EBE521
:10162000F0E0808180648C9312C0ABE5B0E0EBE524
:10163000F0E0808180688C930AC0ABE5B0E0EBE518
:10164000F0E0808180628C9302C081E0898389818F
:101650000F900F900F900F90CF91DF910895DF932F
:10166000CF9300D000D0CDB7DEB78A8319828A81AC
:10167000282F30E03C832B838B819C818630910521
:1016800059F02B813C812730310571F08B819C8191
:101690008530910589F018C0ABE5B0E0EBE5F0E0EE
:1016A00080818F7B8C9312C0ABE5B0E0EBE5F0E07E
:1016B00080818F778C930AC0ABE5B0E0EBE5F0E07A
:1016C00080818F7D8C9302C081E0898389810F9016
:1016D0000F900F900F90CF91DF910895DF93CF93EC
:1016E00000D00F92CDB7DEB79B838A8319828A819F
:1016F0009B81009719F481E0898306C08A819B81D0
:10170000909371008093700089810F900F900F90DB
:10171000CF91DF910895DF93CF9300D00F92CDB793
:10172000DEB79B838A8319828A819B81009719F493
:1017300081E0898306C08A819B81909373008093A6
:10174000720089810F900F900F90CF91DF910895D3
:10175000DF93CF9300D00F92CDB7DEB79B838A8300
:1017600019828A819B81009719F481E0898306C0E0
:101770008A819B81909375008093740089810F907A
:101780000F900F90CF91DF9108951F920F920FB697
:101790000F9211242F933F934F935F936F937F93F7
:1017A0008F939F93AF93BF93EF93FF93DF93CF9369
:1017B000CDB7DEB7E0917000F09171000995CF913F
:1017C000DF91FF91EF91BF91AF919F918F917F91A9
:1017D0006F915F914F913F912F910F900FBE0F909E
:1017E0001F9018951F920F920FB60F9211242F93EE
:1017F0003F934F935F936F937F938F939F93AF9399
:10180000BF93EF93FF93DF93CF93CDB7DEB7E09114
:101810007200F09173000995CF91DF91FF91EF91E4
:10182000BF91AF919F918F917F916F915F914F91F8
:101830003F912F910F900FBE0F901F9018951F9200
:101840000F920FB60F9211242F933F934F935F93F4
:101850006F937F938F939F93AF93BF93EF93FF9378
:10186000DF93CF93CDB7DEB7E0917400F0917500B0
:101870000995CF91DF91FF91EF91BF91AF919F912A
:101880008F917F916F915F914F913F912F910F9029
:101890000FBE0F901F901895DF93CF93CDB7DEB793
:1018A000AFE5B0E0EFE5F0E0808180688C93CF9108
:1018B000DF910895DF93CF93CDB7DEB7AFE5B0E00A
:1018C000EFE5F0E080818F778C93CF91DF910895E1
:1018D000DF93CF93CDB7DEB783E060E040E00E94B6
:1018E0004F06CF91DF910895DF93CF9300D00F92F1
:1018F000CDB7DEB79B838A8319828A819B8100974B
:1019000019F481E0898307C0E0E3F0E08081817011
:10191000EA81FB81808389810F900F900F90CF9196
:10192000DF910895DF93CF930F92CDB7DEB7898310
:10193000E2E5F0E0898180830F90CF91DF910895F7
:10194000DF93CF93CDB7DEB7A3E5B0E0E3E5F0E0FA
:101950008081877F8C93A3E5B0E0E3E5F0E08081B0
:101960008F7B8C93A9E5B0E0E9E5F0E080818160B0
:101970008C93E2E5F0E088EB8083A3E5B0E0E3E55B
:10198000F0E08081887F8C93A3E5B0E0E3E5F0E0B0
:10199000808183608C93CF91DF910895DF93CF9303
:1019A00000D000D000D0CDB7DEB79E838D838D816F
:1019B0009E81CC01A0E0B0E028EE33E040E050E0B2
:1019C000BC01CD010E94C314DC01CB01072E7BE0DA
:1019D000B695A795979587957A95D1F7702D9C83A5
:1019E0008B831A821982A3E5B0E0E3E5F0E0808101
:1019F000877F8C93A3E5B0E0E3E5F0E080818F7B07
:101A00008C93A3E5B0E0E3E5F0E080818E7F8C93DA
:101A1000A3E5B0E0E3E5F0E0808182608C93A3E58C
:101A2000B0E0E3E5F0E080818B7F8C93E2E5F0E0CD
:101A3000108215C0E8E5F0E08081882F90E0817089
:101A400090700097B9F3A8E5B0E0E8E5F0E0808198
:101A500081608C9389819A8101969A8389832981F7
:101A60003A818B819C812817390720F3E3E5F0E068
:101A7000108226960FB6F894DEBF0FBECDBFCF9171
:101A8000DF910895DF93CF930F92CDB7DEB78983AF
:101A9000ECE5F0E0898180830F90CF91DF9108958C
:101AA000DF93CF93CDB7DEB7AFE4B0E0EFE4F0E083
:101AB00080818F7B8C93AFE4B0E0EFE4F0E0808135
:101AC00080688C93AFE4B0E0EFE4F0E08081816067
:101AD0008C93AFE4B0E0EFE4F0E0808182608C931F
:101AE000AEE4B0E0EEE4F0E0808188608C93AEE498
:101AF000B0E0EEE4F0E0808180618C93AEE4B0E091
:101B0000EEE4F0E08081887F8C93AEE4B0E0EEE418
:101B1000F0E0808183608C93CF91DF910895DF9313
:101B2000CF9300D0CDB7DEB79A838983EAE4F0E0A3
:101B300089819A81918380830F900F90CF91DF915B
:101B40000895DF93CF9300D0CDB7DEB79A83898312
:101B5000E6E4F0E089819A81918380830F900F9071
:101B6000CF91DF910895DF93CF9300D00F92CDB73F
:101B7000DEB79B838A8319828A819B81009719F43F
:101B800081E0898306C08A819B819093770080934E
:101B9000760089810F900F900F90CF91DF9108957B
:101BA000DF93CF9300D00F92CDB7DEB79B838A83AC
:101BB00019828A819B81009719F481E0898306C08C
:101BC0008A819B81909377008093760089810F9022
:101BD0000F900F90CF91DF910895DF93CF9300D0B6
:101BE0000F92CDB7DEB79B838A8319828A819B814E
:101BF000009719F481E0898306C08A819B819093C4
:101C000079008093780089810F900F900F90CF9189
:101C1000DF910895DF93CF9300D00F92CDB7DEB759
:101C20009B838A8319828A819B81009719F481E0C2
:101C3000898306C08A819B81909379008093780084
:101C400089810F900F900F90CF91DF910895DF93CE
:101C5000CF9300D0CDB7DEB79A838983ECE4F0E070
:101C600089819A81918380830F900F90CF91DF912A
:101C70000895DF93CF93CDB7DEB7ECE4F0E0808139
:101C80009181CF91DF910895DF93CF93CDB7DEB7E8
:101C9000AEE4B0E0EEE4F0E0808180648C93A9E5EE
:101CA000B0E0E9E5F0E0808180628C93CF91DF9134
:101CB0000895DF93CF9300D0CDB7DEB78A8381E05C
:101CC00089838A81813041F4AEE4B0E0EEE4F0E053
:101CD000808180648C930AC08A81882339F4AEE4C1
:101CE000B0E0EEE4F0E080818F7B8C930F900F905A
:101CF000CF91DF910895DF93CF93CDB7DEB7A9E5FC
:101D0000B0E0E9E5F0E0808180628C93CF91DF91D3
:101D10000895DF93CF93CDB7DEB7A9E5B0E0E9E54D
:101D2000F0E080818F7D8C93CF91DF910895DF93D8
:101D3000CF93CDB7DEB7E6E4F0E080819181CF911B
:101D4000DF910895DF93CF9300D00F92CDB7DEB728
:101D50009B838A8319828A819B81009719F481E091
:101D6000898306C08A819B8190937B0080937A004F
:101D700089810F900F900F90CF91DF9108951F925E
:101D80000F920FB60F9211242F933F934F935F93AF
:101D90006F937F938F939F93AF93BF93EF93FF9333
:101DA000DF93CF93CDB7DEB7E0917600F091770067
:101DB0000995CF91DF91FF91EF91BF91AF919F91E5
:101DC0008F917F916F915F914F913F912F910F90E4
:101DD0000FBE0F901F9018951F920F920FB60F9283
:101DE00011242F933F934F935F936F937F938F9320
:101DF0009F93AF93BF93EF93FF93DF93CF93CDB7B1
:101E0000DEB7E0917600F09177000995CF91DF91F0
:101E1000FF91EF91BF91AF919F918F917F916F91C2
:101E20005F914F913F912F910F900FBE0F901F9098
:101E300018951F920F920FB60F9211242F933F9374
:101E40004F935F936F937F938F939F93AF93BF93C2
:101E5000EF93FF93DF93CF93CDB7DEB7E091780098
:101E6000F09179000995CF91DF91FF91EF91BF91AA
:101E7000AF919F918F917F916F915F914F913F9122
:101E80002F910F900FBE0F901F9018951F920F92D9
:101E90000FB60F9211242F933F934F935F936F933D
:101EA0007F938F939F93AF93BF93EF93FF93DF93B2
:101EB000CF93CDB7DEB7E0917800F0917900099526
:101EC000CF91DF91FF91EF91BF91AF919F918F9152
:101ED0007F916F915F914F913F912F910F900FBE26
:101EE0000F901F9018951F920F920FB60F9211240A
:101EF0002F933F934F935F936F937F938F939F9312
:101F0000AF93BF93EF93FF93DF93CF93CDB7DEB73C
:101F1000E0917A00F0917B000995CF91DF91FF91DC
:101F2000EF91BF91AF919F918F917F916F915F9151
:101F30004F913F912F910F900FBE0F901F901895CA
:101F4000DF93CF930F92CDB7DEB789838981882342
:101F5000B1F4A3E5B0E0E3E5F0E080818E7F8C93FF
:101F6000A3E5B0E0E3E5F0E080818D7F8C93A3E50D
:101F7000B0E0E3E5F0E080818B7F8C9318C089812D
:101F80008330A9F4A3E5B0E0E3E5F0E0808181606F
:101F90008C93A3E5B0E0E3E5F0E0808182608C9370
:101FA000A3E5B0E0E3E5F0E080818B7F8C930F90B8
:101FB000CF91DF910895DF93CF93CDB7DEB7A5E43E
:101FC000B0E0E5E4F0E0808180648C93A5E4B0E0CB
:101FD000E5E4F0E0808188608C93A5E4B0E0E5E47E
:101FE000F0E080818F7E8C93A5E4B0E0E5E4F0E042
:101FF000808180628C93A5E4B0E0E5E4F0E080812C
:1020000084608C93A5E4B0E0E5E4F0E080818E7F0D
:102010008C93A5E4B0E0E5E4F0E080818D7F8C93C3
:10202000CF91DF910895DF93CF930F92CDB7DEB7B5
:102030008983E3E4F0E0898180830F90CF91DF9181
:1020400008950F931F93DF93CF93CDB7DEB7C45599
:10205000D0400FB6F894DEBF0FBECDBF0E944C0C2F
:1020600089E690E00E94A3050E94A00C0E94DB0F6D
:102070008DE494E10E94B30D0E94950984E00E94D2
:10208000E20986EA94E10E946E0B0E94B10984E0A5
:102090000E94500A8FE894E10E948B0B89E690E041
:1020A0000E94A30581E062E040E00E944F0681E0CB
:1020B00063E040E00E944F0683E067E041E00E9459
:1020C0004F060E94680C83E064E040E00E944F06E7
:1020D00083E066E040E00E944F0682E064E040E07A
:1020E0000E944F0683E062E040E00E944F0683E0DA
:1020F00063E040E00E944F0683E067E041E00E9419
:102100004F0680E06FE30E945E0782E06FE00E946E
:102110005E078AE00E94131081E890E00E94740C30
:1021200022E830E083E066E0A9010E94FD0823E890
:1021300030E083E064E0A9010E94FD0824E830E07B
:1021400082E064E0A9010E94FD0880918100813055
:1021500009F09BC3809168000E94131080E06FE338
:102160000E94B50880917C009AE0692F0E94E214D9
:10217000892F982F82E0692F0E94B50880E060E2E5
:102180000E94B508FE01EF5AFF4F80E090E0A0E208
:10219000B1E480839183A283B3838E01035B1F4FDD
:1021A000FE01EF5AFF4F608171818281938120E0AF
:1021B00030E04AE753E40E941F02DC01CB01F80142
:1021C00080839183A283B383FE01E35BFF4F608131
:1021D00071818281938120E030E040E85FE30E94DA
:1021E0007903882344F4FE01E55BFF4F81E090E032
:1021F0009183808364C0FE01E35BFF4F6081718146
:102200008281938120E03FEF4FE757E40E9419035A
:1022100018160CF043C0FE01EF5AFF4F6081718128
:102220008281938120E030E040E251E40E941F026D
:10223000DC01CB018E01055B1F4FBC01CD010E946B
:102240004900DC01CB01F801918380831FC0FE01AE
:10225000E75BFF4F89E190E091838083FE01E75BBC
:10226000FF4F808191810197F1F7FE01E75BFF4FFE
:1022700091838083DE01A55BBF4FFE01E55BFF4FCD
:1022800080819181019711969C938E93FE01E55B6D
:10229000FF4F808191810097D1F627C08E01055BA9
:1022A0001F4FFE01E35BFF4F60817181828193814B
:1022B0000E944900DC01CB01F80191838083DE019B
:1022C000A95BBF4FFE01E55BFF4F808191818D933C
:1022D0009C93FE01E95BFF4F808191810197F1F7AB
:1022E000FE01E95BFF4F9183808380E06FE10E94F4
:1022F000B50880917C009AE0692F0E94E214982F23
:1023000082E0692F0E94B50880E060E10E94B50874
:10231000FE01ED5BFF4F80E090E0A0E2B1E480833E
:102320009183A283B3838E01015C1F4FFE01ED5B9D
:10233000FF4F608171818281938120E030E04AE724
:1023400053E40E941F02DC01CB01F80180839183DA
:10235000A283B383FE01FF966081718182819381A4
:1023600020E030E040E85FE30E94790388232CF40A
:1023700081E090E09EAF8DAF46C0FE01FF96608188
:1023800071818281938120E03FEF4FE757E40E9403
:102390001903181664F5FE01ED5BFF4F6081718132
:1023A0008281938120E030E040E251E40E941F02EC
:1023B000DC01CB01BC01CD010E944900DC01CB0155
:1023C0009EAF8DAF0FC089E190E09CAF8BAF8BAD1E
:1023D0009CAD0197F1F79CAF8BAF8DAD9EAD019792
:1023E0009EAF8DAF8DAD9EAD009769F716C0FE0113
:1023F000FF9660817181828193810E944900DC0196
:10240000CB019EAF8DAF8DAD9EAD9AAF89AF89AD3B
:102410009AAD0197F1F79AAF89AF80E06FE20E9421
:10242000B50880917D009AE0692F0E94E214892FFF
:10243000982F82E0692F0E94B50880E068E00E9432
:10244000B50880E090E0A0E2B1E48DAB9EABAFAB0D
:10245000B8AF6DA97EA98FA998AD20E030E04AE71A
:1024600053E40E941F02DC01CB0189AB9AABABABFA
:10247000BCAB69A97AA98BA99CA920E030E040E80F
:102480005FE30E94790388232CF481E090E098AB0D
:102490008FA73FC069A97AA98BA99CA920E03FEF2B
:1024A0004FE757E40E94190318164CF56DA97EA951
:1024B0008FA998AD20E030E040E251E40E941F0275
:1024C000DC01CB01BC01CD010E944900DC01CB0144
:1024D00098AB8FA70FC089E190E09EA78DA78DA52F
:1024E0009EA50197F1F79EA78DA78FA598A90197A3
:1024F00098AB8FA78FA598A9009769F714C069A911
:102500007AA98BA99CA90E944900DC01CB0198AB58
:102510008FA78FA598A99CA78BA78BA59CA5019792
:10252000F1F79CA78BA780E067E30E94B508809134
:102530007D009AE0692F0E94E214982F82E0692FB3
:102540000E94B50880E064E00E94B50880E090E059
:10255000A0E2B1E48FA398A7A9A7BAA76FA178A515
:1025600089A59AA520E030E04AE753E40E941F02C3
:10257000DC01CB018BA39CA3ADA3BEA36BA17CA16B
:102580008DA19EA120E030E040E85FE30E94790346
:1025900088232CF481E090E09AA389A33FC06BA12B
:1025A0007CA18DA19EA120E03FEF4FE757E40E9460
:1025B000190318164CF56FA178A589A59AA520E0F6
:1025C00030E040E251E40E941F02DC01CB01BC017B
:1025D000CD010E944900DC01CB019AA389A30FC061
:1025E00089E190E098A38F8F8F8D98A10197F1F7E3
:1025F00098A38F8F89A19AA101979AA389A389A1F2
:102600009AA1009769F714C06BA17CA18DA19EA12E
:102610000E944900DC01CB019AA389A389A19AA158
:102620009E8F8D8F8D8D9E8D0197F1F79E8F8D8F53
:1026300080E06BE30E94B50880917E009AE0692FEC
:102640000E94E214892F982F82E0692F0E94B5081A
:1026500080E062E00E94B50880E090E0A0E2B1E492
:10266000898F9A8FAB8FBC8F698D7A8D8B8D9C8D66
:1026700020E030E04AE753E40E941F02DC01CB0176
:102680008D8B9E8BAF8BB88F6D897E898F89988D4E
:1026900020E030E040E85FE30E94790388232CF4D7
:1026A00081E090E09C8B8B8B3FC06D897E898F8908
:1026B000988D20E03FEF4FE757E40E94190318166A
:1026C0004CF5698D7A8D8B8D9C8D20E030E040E259
:1026D00051E40E941F02DC01CB01BC01CD010E942C
:1026E0004900DC01CB019C8B8B8B0FC089E190E012
:1026F0009A8B898B89899A890197F1F79A8B898BB3
:102700008B899C8901979C8B8B8B8B899C890097EB
:1027100069F714C06D897E898F89988D0E94490060
:10272000DC01CB019C8B8B8B8B899C89988B8F8751
:102730008F8598890197F1F7988B8F8780E06DE3FB
:102740000E94B50880917E009AE0692F0E94E214F1
:10275000982F82E0692F0E94B50880E061E00E9416
:10276000B50880E090E0A0E2B1E48B879C87AD875C
:10277000BE876B857C858D859E8520E030E04AE7AD
:1027800053E40E941F02DC01CB018F839887A98745
:10279000BA876F81788589859A8520E030E040E8A6
:1027A0005FE30E94790388232CF481E090E09E830C
:1027B0008D833FC06F81788589859A8520E03FEFC2
:1027C0004FE757E40E94190318164CF56B857C857A
:1027D0008D859E8520E030E040E251E40E941F029A
:1027E000DC01CB01BC01CD010E944900DC01CB0121
:1027F0009E838D830FC089E190E09C838B838B81C6
:102800009C810197F1F79C838B838D819E81019739
:102810009E838D838D819E81009769F714C06F819F
:10282000788589859A850E944900DC01CB019E83C9
:102830008D838D819E819A83898389819A81019775
:10284000F1F79A83898380E06EE30E94B50889E6F8
:1028500090E00E94F90580918400813031F410925B
:102860007C0010927D0010927E0080918300813068
:1028700019F480E00E94A00F80918200813009F05D
:102880004BCC83E00E94A00F47CC80E00E94131045
:1028900080E060EC0E94B5083FCCDF93CF93CDB7CA
:1028A000DEB780917F009091800001969093800028
:1028B00080937F0080917F009091800021E0893E8D
:1028C000920749F480917C008F5F80937C00109286
:1028D000800010927F0080917C008C3339F48091CD
:1028E0007D008F5F80937D0010927C0080917D0041
:1028F0008C3339F480917E008F5F80937E0010923C
:102900007D0080917E00883139F480917E008F5F58
:1029100080937E0010927E00CF91DF910895DF9327
:10292000CF93CDB7DEB7809168008A3130F08091C7
:10293000680089518093680002C0109268008091FD
:1029400068000E941310CF91DF910895DF93CF9319
:10295000CDB7DEB780916800882F90E049968F3F11
:10296000910509F034F480916800875E80936800D7
:1029700003C08FEF80936800809168000E9413105D
:10298000CF91DF910895629FD001739FF001829FE4
:10299000E00DF11D649FE00DF11D929FF00D839FEE
:1029A000F00D749FF00D659FF00D9927729FB00D8B
:1029B000E11DF91F639FB00DE11DF91FBD01CF019E
:1029C00011240895991B79E004C0991F961708F007
:1029D000961B881F7A95C9F7809508952F923F928C
:1029E0004F925F926F927F928F929F92AF92BF921F
:1029F000CF92DF92EF92FF920F931F93CF93DF93CB
:102A0000CDB7DEB7CA1BDB0B0FB6F894DEBF0FBE27
:102A1000CDBF09942A88398848885F846E847D8474
:102A20008C849B84AA84B984C884DF80EE80FD8076
:102A30000C811B81AA81B981CE0FD11D0FB6F894EC
:0E2A4000DEBF0FBECDBFED010895F894FFCFAD
:102A4E00000000000000000019000100010100005C
:00000001FF
